:040000000AEF00F013
:10000800FACF02F0FBCF03F056ED00F0F2EF00F06C
:10001800300E9D6E0F0EC16E166E7C0E106E165051
:10002800000E126E830E116E9FEC00F09380938287
:10003800938493869388938A958C958E8A908A92D6
:100048008A948A968A988A9A8C9C8C9E1768000E45
:1000580081B0010E186E000E81B2010E196E000EED
:1000680081B4010E1A6E000E81B6010E1B6E000ED1
:1000780081B8010E1C6E000E81BA010E1D6E000EB5
:1000880083BC010E1E6E000E83BE010E1F6E000E95
:10009800126E170E116E166E090E136E1650CDECF9
:1000A80000F0D4D70600E9CF04F0EACF05F0E1CF9D
:1000B80006F0E2CF07F0D9CF08F0DACF09F0F3CF96
:1000C8000AF0F4CF0BF0F6CF0CF0F7CF0DF0F8CF25
:1000D8000EF0F5CF0FF0F29E9EAA01D001D00DD000
:1000E800AECF22F02228D8A401D001D006D0016ECC
:1000F800010E236E015001D000D0F28E0FC0F5FF23
:100108000EC0F8FF0DC0F7FF0CC0F6FF0BC0F4FFE0
:100118000AC0F3FF09C0DAFF08C0D9FF07C0E2FF31
:1001280006C0E1FF05C0EAFF04C0E9FF03C0FBFF0A
:1001380002C0FAFF1100000EAC6E000EAB6E10B0DC
:10014800AC8810A202D0AC8CAB8C10B4AC8E10A6CC
:1001580002D0AB8801D0AB8A10B8AC849E9810BA94
:10016800AB8610AC02D09D8A01D09D9A9E9A10AEA3
:1001780002D09D8801D09D9811C0AFFF1250B06E7B
:10018800AC8AAB8E949C948EACB8ACBE01D0948CE7
:100198001200146E000E156E1450146E000E156EBB
:1001A80014500FD0ACA2FED71550010DF3501124F6
:1001B800D96EF4501220DA6EDF50106EEAEC00F0BF
:1001C800152A1350155CD8B01200ECD7ACAC03D08C
:1001D800AC9020B2AC8010C0ADFF1200236A226A36
:0A01E800216A206A00010CEF00F00C
:020000040020DA
:08000000FFFFFFFFFFFFFFFF00
:020000040030CA
:0E000000FF02191EFF8380FF0FC00FE00F40AC
:00000001FF
