:04000000BDEF12F04E
:1010000001000A006400E80310273C04429F6A4282
:101010009001424DBB40EC473E8E1FBB3C04425A00
:101020008B420444429C4F4100803F25642C256440
:101030002C25640A0000000E00010001976F000ECD
:101040000001966F000E000100019F6F000E00016D
:101050009E6F1CEC12F05E6E1D0E086E5E505F6E91
:101060006B0E096E5F50A4EC10F008C096F009C03A
:1010700097F000F00001000E096E0001A00E086E4E
:101080001CEC0FF000F000F00001000E096E0001F2
:10109000A00E086E1CEC0FF00001000E096E00019E
:1010A000980E086EC0EC0EF00001000E096E0001F3
:1010B000B50E086E64EC0EF00001000E106E00011B
:1010C000780E0F6E100E126E2B0E116EB5C013F04F
:1010D000B6C014F0B7C015F0B8C016F0B9C017F01C
:1010E000BAC018F040EC0BF00001000E036E0001D6
:1010F000780E026E38EC12F000010001B6AF6FD02E
:10110000000E3B6E340E3C6E430E3D6EB5C022F0B9
:10111000B6C023F09EEC11F024C02CF023C02BF0BD
:1011200022C02AF0B7C022F0B8C023F09EEC11F024
:1011300024C029F023C028F022C027F089EC0CF04D
:1011400029C03AF028C039F027C038F0FBEC0BF08A
:101150003AC0A8F039C0A7F038C0A6F0100E2A6E29
:10116000490E2B6E400E2C6EA6C027F0A7C028F0AB
:10117000A8C029F089EC0CF029C0ABF028C0AAF077
:1011800027C0A9F0A9C068F0AAC069F0ABC06AF096
:1011900066EC09F06AC0AEF069C0ADF068C0ACF0B2
:1011A000000E4C6E870E4D6E430E4E6EACC010F0AE
:1011B000ADC011F0AEC012F072EC12F012C04BF0E4
:1011C00011C04AF010C049F05AEC0AF04BC015F0BB
:1011D0004AC014F049C013F00EEC0DF05AD0100EB6
:1011E0002A6E490E2B6E400E2C6E000E0D6EB40E44
:1011F0000C6EB5C003F0B6C004F0B7C001F0B8C0C3
:1012000002F078EC0FF001C00AF002C00BF0FFEC26
:1012100011F00AC022F00BC023F09EEC11F024C0A4
:1012200029F023C028F022C027F089EC0CF029C057
:10123000B1F028C0B0F027C0AFF0AFC068F0B0C0C8
:1012400069F0B1C06AF066EC09F06AC0B4F069C038
:10125000B3F068C0B2F0000E4C6EB40E4D6E420E8C
:101260004E6EB2C010F0B3C011F0B4C012F072EC08
:1012700012F012C04BF011C04AF010C049F05AEC05
:101280000AF04BC015F04AC014F049C013F00EEC40
:101290000DF013C09EF014C09FF0820E5E6EDD0E46
:1012A000E82EFED75E2EFCD700D0820E5E6EDD0EDD
:1012B000E82EFED75E2EFCD700D0820E5E6EDD0ECD
:1012C000E82EFED75E2EFCD700D0DDD668C022F017
:1012D00069C023F06AC024F0C0EC11F024C077F09C
:1012E00023C076F022C075F07F0E00017715000153
:1012F000761100017511D8A40DD0000E0001000177
:10130000686F000E00010001696F000E000100010E
:101310006A6F1200000E016E800E026E3F0E036EA9
:1013200075C004F076C005F077C006F0C0EC0FF091
:10133000D8B002D0010E01D0000E00010001716F83
:1013400000017151D8B414D0000E276E800E286EA3
:101350003F0E296E75C02AF076C02BF077C02CF0B6
:1013600089EC0CF029C077F028C076F027C075F022
:1013700075C038F076C039F077C03AF075C03BF0F0
:1013800076C03CF077C03DF0FBEC0BF03AC074F057
:1013900039C073F038C072F072C057F073C058F0A3
:1013A00074C059F0100E5B6E1C0E5A6E000E5D6E0E
:1013B000040E5C6E8FEC0DF059C06DF058C06CF0EF
:1013C00057C06BF072C057F073C058F074C059F03A
:1013D000100E5B6E0A0E5A6E000E5D6E050E5C6E90
:1013E0008FEC0DF059C070F058C06FF057C06EF020
:1013F0000001000E4A6E0001750E496E6BC02AF0A6
:101400006CC02BF06DC02CF06EC027F06FC028F0C0
:1014100070C029F089EC0CF029C04DF028C04CF0C8
:1014200027C04BF0E1EC11F0000100017151D8B47C
:101430001CD075C010F076C011F077C012F072ECBD
:1014400012F012C04BF011C04AF010C049F0100E5B
:101450004C6EC90E4D6E3F0E4E6E5AEC0AF04BC0EC
:1014600077F04AC076F049C075F0000100016A517A
:10147000800A800F07E1000E0001695D03E1000EA4
:101480000001685DD8A007D075C068F076C069F02B
:1014900077C06AF0120075C010F076C011F077C006
:1014A00012F072EC12F012C06AF011C069F010C0B4
:1014B00068F012000F0E4F6E49C050F04AC051F054
:1014C0004BC052F04F28536E04D0D8905232513254
:1014D0005032532EFAD75050566E0F0E4F6E4CC0EE
:1014E00050F04DC051F04EC052F04F28536E04D012
:1014F000D890523251325032532EFAD75050556E46
:101500005650D8B40BD0555056600FD056500008E6
:1015100055244F6E190E4F5CD8A007D04CC049F02F
:101520004DC04AF04EC04BF012005550D8B40BD00D
:10153000565055600FD05550000856244F6E190E66
:101540004F5CD8A007D049C049F04AC04AF04BC010
:101550004BF012004F6E060E546E4F504BBE548E21
:101560004EBE548C4A8EFF0E4916FF0E4A16000ED0
:101570004B164D8EFF0E4C16FF0E4D16000E4E16DE
:101580005550566018D0D8904C364D364E365506CC
:1015900055505618D8B40BD054065450070BD8B435
:1015A00006D0F1D7D8904B324A324932562A55509C
:1015B0005662F8D71AD05650556017D0D890493691
:1015C0004A364B36560655505618D8B40BD05406EA
:1015D0005450070BD8B406D0F1D7D8904E324D32C4
:1015E0004C32552A55505662F8D754AE0CD0FF0EE7
:1015F000491AFF0E4A1AFF0E4B1A010E4926000E19
:101600004A22000E4B2254AC0CD0FF0E4C1AFF0E97
:101610004D1AFF0E4E1A010E4C26000E4D22000EE2
:101620004E224F6E000E546E4F5049504C264A5079
:101630004D224B504E224EAE10D0FF0E4C1AFF0ED4
:101640004D1AFF0E4E1A010E4C26000E4D22000EB2
:101650004E224F6E010E546E4F504CC001F04DC0E3
:1016600002F04EC003F056C004F054C005F008EC80
:101670000EF003C04BF002C04AF001C049F0120066
:10168000000E1C6E130E1B6E9ED02450250AD8B47B
:1016900009D00FC0D9FF10C0DAFF24C0DFFF0F4A06
:1016A000102A91D0196E000E1D6E19501150196E2E
:1016B00012501A6E114A122A19C0F6FF1AC0F7FF0B
:1016C000000EF86E0800F5CF24F02450000AD8B4BC
:1016D0008BD0640AD8B403D00D0AD8A474D01BC030
:1016E000D9FF1CC0DAFFDECF1FF0DDCF20F0020EE5
:1016F0001B26000E1C2220AE06D0030E1D121F6CEE
:10170000201ED8B0202A196E010E246E19502450C4
:10171000050AD8B419D02450020D000EF324F66E39
:10172000100EF420F76EF86A000EF8220900F5CFCB
:1017300019F00900F5CF1AF019501F5C1A50205803
:10174000D8A002D0242AE3D71D50030BD8B408D068
:101750000FC0D9FF10C0DAFF2D0EDF6E0F4A102A1E
:1017600024C01EF02CD01E50020D000EF324F66E85
:10177000100EF420F76EF86A000EF8220900F5CF7B
:1017800003F00A00F5CF04F01FC001F020C002F002
:1017900001EC11F001C009F002C00AF0000E0C6E5D
:1017A0000A0E0B6E7BEC11F00950300F246E0FC047
:1017B000D9FF10C0DAFF24C0DFFF0F4A102A1E062F
:1017C0001E28D8A4D0D71150196E12501A6E114A83
:1017D000122A19C0F6FF1AC0F7FF000EF86E0800B3
:1017E000F5CF24F0246651D70FC0D9FF10C0DAFF1F
:1017F000000EDF6E12000F0E3E6E38C03FF039C093
:1018000040F03AC041F03E28426E04D0D8904132B8
:1018100040323F32422EFAD73F50436E436607D0E4
:10182000000E386E000E396E000E3A6E12000F0E6A
:101830003E6E3BC03FF03CC040F03DC041F03E2812
:10184000426E04D0D890413240323F32422EFAD715
:101850003F50486E486607D0000E386E000E396E55
:10186000000E3A6E120048507B0F43263AC048F0F3
:101870003D50481A800E4816398E3C8EFF0E3B169E
:10188000FF0E3C16000E3D16000E446E000E456E17
:10189000000E466E3E6E070E476E3E5038A006D0D4
:1018A0003B5044263C5045223D504622D8903A3287
:1018B00039323832D8903B363C363D36472EEED75B
:1018C0003E6E090E476E3E5038A006D03B5044266F
:1018D0003C5045223D504622D8903A323932383277
:1018E000D890463245324432472EEED744C001F0FC
:1018F00045C002F046C003F043C004F048C005F004
:1019000008EC0EF003C03AF002C039F001C038F024
:1019100012000F0E2D6E27C02EF028C02FF029C008
:1019200030F02D28316E04D0D89030322F322E3244
:10193000312EFAD72E50366E366607D0000E276E3F
:10194000000E286E000E296E12000F0E2D6E2AC09A
:101950002EF02BC02FF02CC030F02D28316E04D08B
:10196000D89030322F322E32312EFAD72E50376E99
:10197000376607D0000E276E000E286E000E296E07
:101980001200000E336E000E346E000E356E3750AE
:10199000890F365E29C037F02C50371A800E371663
:1019A000288EFF0E2716FF0E2816000E29162B8EE6
:1019B000FF0E2A16FF0E2B16000E2C162D6E180E7B
:1019C000326E2D50D8903336343635362A50275C57
:1019D0002B5028582C502958D8A007D02A50275EC1
:1019E0002B50285A2C50295A3380D8902736283625
:1019F0002936322EE7D733C001F034C002F035C0AB
:101A000003F036C004F037C005F008EC0EF003C058
:101A100029F002C028F001C027F012000F0E176E47
:101A200013C018F014C019F015C01AF017281B6E57
:101A300004D0D8901A32193218321B2EFAD7185007
:101A4000216E216609D0000E136E000E146E000E7A
:101A5000156E000E166E1200170E176E13C018F0DA
:101A600014C019F015C01AF017281B6E04D0D890B6
:101A70001A32193218321B2EFAD718501C6E148ED7
:101A8000FF0E1316FF0E1416000E151613501D6EC2
:101A900014501E6E15501F6E206A8E0E215E21AEF0
:101AA00016D02150800A8F0FD8B009D0000E136EC7
:101AB000000E146E000E156E000E166E1200D890F9
:101AC00020321F321E321D32213EF9D714D0170E9C
:101AD00021640FD0000E136E000E146E000E156EF2
:101AE000000E166E1200D8901D361E361F36203698
:101AF00021062166F8D71C50D8B408D0201E1F1E1E
:101B00001E1E1D6C000E1E221F2220221DC013F05F
:101B10001EC014F01FC015F020C016F012005CC0EB
:101B20000AF05DC00BF0000E0D6E030E0C6EFFECA4
:101B300011F00A505A240001606F0B505B20000125
:101B4000616F60C0F6FF61C0F7FF000EF86E09001C
:101B5000F5CF62F00900F5CF63F00900F5CF64F02E
:101B600064C067F063C066F062C065F046D065C0CF
:101B70003BF066C03CF067C03DF057C038F058C03D
:101B800039F059C03AF0FBEC0BF03AC04BF039C0D9
:101B90004AF038C049F0000E0D6E030E0C6E5C0664
:101BA000D8A05D065CC00AF05DC00BF0FFEC11F040
:101BB0000A505A240001606F0B505B200001616FD6
:101BC00060C0F6FF61C0F7FF000EF86E0900F5CFA8
:101BD00062F00900F5CF63F00900F5CF64F064C04E
:101BE0004EF063C04DF062C04CF05AEC0AF04BC0AE
:101BF00067F04AC066F049C065F05D505C10D8A43B
:101C0000B6D765C057F066C058F067C059F01200EB
:101C10000450D8B405D0015002100310D8A40CD041
:101C2000000E016E000E026E000E036E1200042AFA
:101C3000D890033202320132000E0114066E000EFB
:101C40000214076EFE0E0314086E065007100810EB
:101C5000D8B40CD0ECD7042A010E0126000E0222C3
:101C6000000E0322D890033202320132000E01141A
:101C7000066E000E0214076EFF0E0314086E065067
:101C800007100810D8B406D0E6D70406D89001365D
:101C90000236033602AEF9D704A0029ED890043271
:101CA0000450086E076A066A0650011207500212B5
:101CB000085003120550D8A4038E01C001F002C0E1
:101CC00002F003C003F012000A6E090E076E0A50FC
:101CD000B3EC12F00B6E0B500D6E0C6A0E6E080E0C
:101CE000076E0E50B3EC12F00F6E0F500C12000E78
:101CF0000D1208C0D9FF09C0DAFF0CC0DEFF0DC00D
:101D0000DDFF0A6E0B0E076E0A50B3EC12F00B6E7D
:101D10000B500D6E0C6A0E6E0A0E076E0E50B3EC71
:101D200012F00F6E0F500C12000E0D1220EE02F08A
:101D30000850D9260950DA220CC0DEFF0DC0DDFFA5
:101D40000A6E0D0E076E0A50B3EC12F00B6E0B50BC
:101D50000D6E0C6A0E6E0C0E076E0E50B3EC12F088
:101D60000F6E0F500C12000E0D1220EE04F00850F2
:101D7000D9260950DA220CC0DEFF0DC0DDFF1200AB
:101D80000A6E290E076E0A50A9EC12F00B6E0B506A
:101D90000D6E0C6A0E6E280E076E0E50A9EC12F036
:101DA0000F6E0F500C12000E0D1208C0D9FF09C0A3
:101DB000DAFF0CC0DEFF0DC0DDFF0A6E2B0E076ED2
:101DC0000A50A9EC12F00B6E0B500D6E0C6A0E6EE1
:101DD0002A0E076E0E50A9EC12F00F6E0F500C1267
:101DE000000E0D1220EE02F00850D9260950DA221A
:101DF0000CC0DEFF0DC0DDFF0A6E2D0E076E0A500F
:101E0000A9EC12F00B6E0B500D6E0C6A0E6E2C0EC0
:101E1000076E0E50A9EC12F00F6E0F500C12000E50
:101E20000D1220EE04F00850D9260950DA220CC019
:101E3000DEFF0DC0DDFF12000A6E290E076E0A508C
:101E4000B3EC12F00B6E0B500D6E0C6A0E6E280E7A
:101E5000076E0E50B3EC12F00F6E0F500C12000E06
:101E60000D1208C0D9FF09C0DAFF0CC0DEFF0DC09B
:101E7000DDFF0A6E2B0E076E0A50B3EC12F00B6EEC
:101E80000B500D6E0C6A0E6E2A0E076E0E50B3ECE0
:101E900012F00F6E0F500C12000E0D1220EE02F019
:101EA0000850D9260950DA220CC0DEFF0DC0DDFF34
:101EB0000A6E2D0E076E0A50B3EC12F00B6E0B502B
:101EC0000D6E0C6A0E6E2C0E076E0E50B3EC12F0F7
:101ED0000F6E0F500C12000E0D1220EE04F0085081
:101EE000D9260950DA220CC0DEFF0DC0DDFF12003A
:101EF000056E000E076E055004AE08D0036C041E7C
:101F0000D8B0042A056E010E076E055002AE06D049
:101F1000016C021ED8B0022A010E071A000E096ECB
:101F2000000E086E04500310D8B41ED0056E010ECA
:101F3000066E055004D0D89003360436062A04AE47
:101F4000FAD7D890083609360350015C045002587D
:101F5000D8A005D00350015E0450025A0880D890E2
:101F600004320332062EEDD70750D8B404D0086CE3
:101F7000091ED8B0092A08C001F009C002F01200F9
:101F800003AE16D001C007F002C008F003C009F08C
:101F9000071E081E091E072A000E08220922000E2D
:101FA0000724016E000E0820026E800E0920036EC9
:101FB00006AE16D004C007F005C008F006C009F050
:101FC000071E081E091E072A000E08220922000EFD
:101FD0000724046E000E0820056E800E0920066E90
:101FE000000E011A000E021A800E031A000E041AC7
:101FF000000E051A800E061A0450015C05500258A6
:1020000006500358D8B002D0D8901200D8801200E1
:1020100001C0C9FFC6AE02D0FF0E1200C6500F0BA2
:10202000080AD8B40FD0C6500F0B0B0AD8B40AD088
:10203000C6889EA6FED7C7A4C7B002D0FE0E120067
:10204000000E1200C6500F0B080AD8B405D0C650B7
:102050000F0B0B0AD8A41200C7B0FED7C730E83266
:10206000010B026EC5501F0B02100009D8A4F6D751
:10207000C5AC02D0FE0E1200000E1200056E240E3A
:10208000036E0550066E140E046E06505FEC12F0DF
:10209000056E250E036E0550066E010E046E065089
:1020A0005FEC12F0056E260E036E0550066E000EF4
:1020B000046E06505FEC12F0056E230E036E0550A1
:1020C000066E040E046E06505FEC12F0056E120EE2
:1020D000036E0550066E090E046E06505FEC12F09A
:1020E0001200056E200E036E0550066E0F0E046E74
:1020F00006504CEC12F0056E210E036E0550066E74
:10210000000E046E06504CEC12F0056E220E036EAB
:102110000550066E880E046E06504CEC12F0056EEB
:10212000230E036E0550066E000E046E06504CEC36
:1021300012F0056E240E036E0550066E000E046E3E
:1021400006504CEC12F012000A6E000E0C6E0A5093
:102150000A6E000E0D6E0A5008500824000100019E
:10216000BD6F0950092400010001BC6F0A6E0F0EFB
:10217000076E0A50B3EC12F00D6E0A6E0F0E076E6A
:102180000A50A9EC12F00C6E2CEC11F071EC10F06E
:102190003EEC10F00D500B6E0A6A0C500A24086ECB
:1021A000000E0B20096E1200056E000E066E055023
:1021B000C580C5B0FED703500324016E08EC10F0B3
:1021C0000009D8A4F8D704C001F008EC10F0000909
:1021D000D8A4F9D7C582C5B2FED7D8800334016E22
:1021E00008EC10F00009D8A4F8D785EC12F0066EC0
:1021F000C58AC588C5B8FED7C584C5B4FED7065004
:102200001200000E076E000E066E04500310D8B4C4
:102210001ED0056E010E086E055004D0D89003360E
:102220000436082A04AEFAD7D8900636073603508B
:10223000015C04500258D8A005D00350015E045040
:10224000025A0680D89004320332082EEDD706C019
:1022500001F007C002F01200056E1F0E036E05505C
:10226000066E000E046E06505FEC12F0056E200E36
:10227000036E0550066E970E046E06505FEC12F06A
:10228000056E210E036E0550066ED00E046E0650CC
:102290005FEC12F0056E220E036E0550066E040E02
:1022A000046E06505FEC12F01200000EAC6E000ED1
:1022B000AB6E01B0AC8801A202D0AC8CAB8C01B487
:1022C000AC8E01A602D0AB8801D0AB8A01B8AC8439
:1022D00001BAAB8601AC02D09D8A01D09D9A01AEB5
:1022E00002D09D8801D09D9802C0AFFF0350B06E10
:1022F000AC8AAB8E12000C500B10D8B41AD00D6EF5
:10230000010E0E6E0D5004D0D8900B360C360E2AEE
:102310000CAEFAD70B50095C0C500A58D8A004D068
:102320000B50095E0C500A5AD8900C320B320E2E0C
:10233000F1D709C009F00AC00AF01200256E000E9C
:10234000266E255023AE08D0226C231ED8B0232A37
:10235000256E010E266E255022C001F023C002F02A
:10236000036A256E8E0E046E255026C005F008EC1B
:102370000EF003C024F002C023F001C022F01200CE
:102380002450800A800F05E1000E235C02E1000E5C
:10239000225CD8B00FD022C010F023C011F024C0AE
:1023A00012F072EC12F012C024F011C023F010C031
:1023B00022F0120022C022F023C023F024C024F017
:1023C000120049C0D9FF4AC0DAFFDECF38F0DECFB5
:1023D00039F0DDCF3AF04BC03BF04CC03CF04DC083
:1023E0003DF0FBEC0BF049C0D9FF4AC0DAFF38C022
:1023F000DEFF39C0DEFF3AC0DDFFDD5212000A50B9
:102400000C02F3CF0EF0F4CF0FF00A500D02F3CF11
:10241000F4FFF36AF3500E26F4500F220B500C0217
:10242000F3CFF4FFF36AF3500E26F4500F220EC0E0
:102430000AF00FC00BF01200000E0F010F013A6FEF
:10244000C69A046E080E016E0450056E800E026E70
:10245000055093EC12F0310EC86E046E7C0E016EC6
:102460000450000E036E830E026E55EC11F0120044
:10247000ACA2FED702C0D9FF03C0DAFFDF50016E65
:102480009FEC12F002C0D9FF03C0DAFF024A032A10
:10249000DF50D8B41200ECD7C580C5B0FED7BCC0A1
:1024A00001F008EC10F003C001F008EC10F004C0DB
:1024B00001F008EC10F0C584C5A41200FDD7C5805A
:1024C000C5B0FED7BDC001F008EC10F003C001F0AC
:1024D00008EC10F004C001F008EC10F0C584C5A4AD
:1024E0001200FDD77F0E121411101010D8B406D0B0
:1024F000000E101A000E111A800E121A10C010F0E1
:1025000011C011F012C012F01200C6500F0B080AD1
:10251000D8B404D0C6500F0B0B0AD8B4C586C7A0D8
:10252000FED7C95012003F0EC716000EC66E000E31
:10253000C56E0150C6120250C712C68A1200ACAC5A
:1025400005D0AC9000010001BBB3AC8001C0ADFF71
:10255000120000010001D890BC31036E07C004F0E6
:10256000D4EC10F0120000010001D890BD31036ED0
:1025700007C004F0D4EC10F012000001BD6BBC6B7E
:08258000BB6B00011BEF08F02A
:020000040020DA
:08000000FFFFFFFFFFFFFFFF00
:020000040030CA
:0E000000FF22193CFFBF80FF0FC00FE00F4032
:00000001FF
