:040000008CEF00F091
:10000800FACF05F0FBCF06F0E9CF07F0EACF08F00A
:10001800E1CF09F0E2CF0AF0D9CF0BF0DACF0CF03C
:10002800F3CF0DF0F4CF0EF0F6CF0FF0F7CF10F0BE
:10003800F8CF11F0F5CF12F0F29EF2A401D001D062
:1000480009D0F294000ED76E000ED66E00013B88E0
:100058002E2A00D09EA001D001D008D09E90000E7C
:10006800CF6E000ECE6E00013B8A00D09EA201D05A
:1000780001D006D09E92000EBC6E00013B8C00D0D1
:100088009EAA01D001D003D09E9A00013B84A4AA65
:1000980001D001D003D0A49A00013B86F2A201D07E
:1000A80001D00AD0F29200013B80046E4C0E026E21
:1000B800045034EC03F000D0F0A001D001D00AD0F5
:1000C800F09000013B82046E4C0E026E045023EC4B
:1000D80003F000D0F28E12C0F5FF11C0F8FF10C077
:1000E800F7FF0FC0F6FF0EC0F4FF0DC0F3FF0CC002
:1000F800DAFF0BC0D9FF0AC0E2FF09C0E1FF08C060
:10010800EAFF07C0E9FF06C0FBFF05C0FAFF1100C0
:1001180053EF03F0000E0F010F013A6FC69A1F6EDE
:10012800080E136E1F50206E800E146E20505FEC68
:1001380003F0310EC86E1F6E7C0E136E1F50030E37
:10014800156E780E146EB4EC02F01F6E1D0E1A6E4A
:100158001F50206E6B0E1B6E2050DAEC02F01F6EE3
:10016800FF0E136E1F50206EDF0E146E20508BECA6
:1001780001F01F6EFF0E136E1F50206EDF0E146EFF
:10018800205054EC01F01F6EFF0E136E1F50206EAE
:10019800DF0E146E2050DCEC00F01F6EFF0E136EA5
:1001A8001F50206EDF0E146E20501AEC01F0120062
:1001B8000C0E0F010F015D6F3F0E0F010F01491764
:1001C80014C015F0300E1516D8901536D890153481
:1001D8000F010F0149130F010F014951C00BD8A49A
:1001E80005D0BA9413C0BBFFBA8412000F010F01E7
:1001F8004951C00B400AD8A409D00F010F015195ED
:1002080013C052FF0F010F01518512000F010F019A
:100218004951C00B800AD8A412000F010F014A955A
:1002280013C04BFF0F010F014A8512000C0E0F017E
:100238000F01576FFC0E0F010F01481714380F0BF1
:10024800030B0F010F01481393900F010F01485141
:10025800030BD8A405D0BA9413C0BBFFBA8412000C
:1002680048CF15F0030E15161504D8A409D00F01B0
:100278000F01519513C052FF0F010F015185120054
:100288000F010F014851030B020AD8A412000F01F5
:100298000F014A9513C04BFF0F010F014A85120049
:1002A8000C0E666EE70E0F010F014917D890143037
:1002B800180B0F010F0149130F010F014951180BBA
:1002C800D8A405D0BA9413C0BBFFBA8412000F019A
:1002D8000F014951180B080AD8A409D00F010F01C2
:1002E800519513C052FF0F010F01518512000F01E4
:1002F8000F014951180B100AD8A412000F010F0161
:100308004A9513C04BFF0F010F014A8512000C0ECE
:10031800BD6EFC0E0F010F01491714380F0B030BAC
:100328000F010F0149130F010F014951030BD8A405
:1003380005D0BA9413C0BBFFBA84120049CF15F098
:10034800030E15161504D8A409D00F010F015195F5
:1003580013C052FF0F010F01518512000F010F0149
:100368004951030B020AD8A412000F010F014A9544
:1003780013C04BFF0F010F014A85120013C0C9FFBC
:10038800C6AE02D0FF0E1200C6500F0B080AD8B432
:100398000FD0C6500F0B0B0AD8B40AD0C6889EA639
:1003A800FED7C7A4C7B002D0FE0E1200000E12007E
:1003B800C6500F0B080AD8B405D0C6500F0B0B0A4D
:1003C800D8A41200C7B0FED7C730E832010B146EAC
:1003D800C5501F0B14100009D8A4F6D7C5AC02D01D
:1003E800FE0E1200000E1200176E240E156E175026
:1003F800186E140E166E185010EC03F0176E250EBA
:10040800156E1750186E010E166E185010EC03F08A
:10041800176E260E156E1750186E000E166E1850B1
:1004280010EC03F0176E230E156E1750186E040E9D
:10043800166E185010EC03F0176E120E156E17504A
:10044800186E090E166E185010EC03F01200176E95
:10045800200E156E1750186E0F0E166E1850FDEC04
:1004680002F0176E210E156E1750186E000E166EDC
:100478001850FDEC02F0176E220E156E1750186E0C
:10048800880E166E1850FDEC02F0176E230E156ECE
:100498001750186E000E166E1850FDEC02F0176E0D
:1004A800240E156E1750186E000E166E1850FDECBF
:1004B80002F01200176E000E186E1750C580C5B0F6
:1004C800FED715501524136EC2EC01F00009D8A40C
:1004D800F8D716C013F0C2EC01F00009D8A4F9D778
:1004E800C582C5B2FED7D8801534136EC2EC01F0B0
:1004F8000009D8A4F8D745EC03F0186EC58AC5885A
:10050800C5B8FED7C584C5B4FED718501200176EFB
:100518001F0E156E1750186E000E166E185010EC40
:1005280003F0176E200E156E1750186E970E166E84
:10053800185010EC03F0176E210E156E1750186E38
:10054800D00E166E185010EC03F0176E220E156EB2
:100558001750186E040E166E185010EC03F01200A7
:10056800000EAC6E000EAB6E13B0AC8813A202D0B6
:10057800AC8CAB8C13B4AC8E13A602D0AB8801D074
:10058800AB8A13B8AC8413BAAB8613AC02D09D8A7D
:1005980001D09D9A13AE02D09D8801D09D9814C0B9
:1005A800AFFF1550B06EAC8AAB8E12001C6E000EF9
:1005B8001D6E1C501C6E000E1E6E1C501A501A2404
:1005C8002D6E1B501B242C6E1C6E0F0E196E1C50AA
:1005D8007EEC03F01E6E1C6E0F0E196E1C5076EC2E
:1005E80003F01D6E8BEC02F02BEC02F0F8EC01F03E
:1005F8001200C580C5B0FED72CC013F0C2EC01F0C4
:1006080015C013F0C2EC01F016C013F0C2EC01F0F3
:10061800C584C5A41200FDD7C580C5B0FED72DC0BE
:1006280013F0C2EC01F015C013F0C2EC01F016C0D3
:1006380013F0C2EC01F0C584C5A41200FDD7036E07
:10064800240E016E035086EC03F0036E210E016E3A
:10065800035086EC03F002C001F086EC03F01200B0
:10066800036E240E016E035086EC03F0036E3F0EFA
:10067800016E035086EC03F002C001F086EC03F033
:100688001200C6500F0B080AD8B404D0C6500F0B7E
:100698000B0AD8B4C586C7A0FED7C95012003B6A5A
:1006A80000EE25F0160EEE6AE806FDE1000EF86E83
:1006B80000016BEF03F03F0EC716000EC66E000E6A
:1006C800C56E1350C6121450C712C68A1200000E07
:1006D800226E000E216E000E246E000E236E8EEC2C
:1006E80000F0FFD7D8902C30156E19C016F05EECCC
:1006F80002F01200D8902D30156E19C016F05EEC7D
:1007080002F01200ACAC03D0AC902BB2AC8001C0AC
:04071800ADFF12001F
:020000040020DA
:08000000FFFFFFFFFFFFFFFF00
:020000040030CA
:0E000000FF22193CFFBF80FF0FC00FE00F4032
:00000001FF
